:1000000000308A0050280000FF00030E8301A10089
:100010000A08A0008A010408A2007708A300780853
:10002000A4007908A5007A08A600831383128C30F7
:100030008400801E1D288C1A2E2822088400230884
:10004000F7002408F8002508F9002608FA0020081F
:100050008A00210E8300FF0E7F0E09008A110A120A
:1000600031288C1E31281A08AC01AB008C128A1181
:100070000A121D28343084008313000803194D2808
:100080000630F800F701F70B4328F80B42287B30C5
:10009000F700F70B4928800B40288A110A128F2895
:1000A000840183131F308305813083169900A630A5
:1000B000980090308312980083161F149F141F1508
:1000C0009F1107309C00FF308312AF00B301B201D3
:1000D00083168C16C03083128B0400308316880080
:1000E0001F109F141F159F151F1383121F179F1793
:1000F00083169F1783121F142F112F088316870052
:10010000831207110C3097000030F8000538920078
:10011000FF308316920064308312B4003A28003016
:10012000F8001F08C73978049F002130F700F70B4B
:100130009728AF152F08831687008312A901871906
:10014000A90A00302F162F08831687008312A701F3
:10015000071AA70A00302B08313C031DB728AC084A
:10016000031DB72801309500AC013330AB002B08DC
:10017000303C031DC628AC08031DC628FA30950084
:100180001708CF399700AC013330AB00A908031D25
:10019000D428AA08031DD428803095001708CF3929
:1001A0009700AC013330AB00A708031DE228A80874
:1001B000031DE228803095001708CF399700AC0165
:1001C0003330AB002B08313C031DED28AC08031D78
:1001D000ED2883160610831206142B08303C031DED
:1001E000F828AC08031DF8288316061083120610A1
:0601F00083168B2863005A
:02400E007A3FF7
:00000001FF
;PIC16F877A
;CRC=05FF  CREATED="07-Dec-21 13:05"
